:100000000C9446000C9465000C9465000C946500FB
:100010000C9465000C9465000C9465000C946500CC
:100020000C9465000C9465000C9465000C946500BC
:100030000C9465000C9465000C9465000C946500AC
:100040000C9465000C9465000C9465000C9465009C
:100050000C9465000C9465000C9465000C9465008C
:100060000C9465000C9465000C9465000C9465007C
:100070000C9465000C9465000C9465000C9465006C
:100080000C9465000C9465000C94650011241FBE4F
:10009000CFEFD0E4DEBFCDBF11E0A0E0B1E0EEEBEA
:1000A000F2E000E00BBF02C007900D92AE30B10746
:1000B000D9F721E0AEE0B1E001C01D92A331B20753
:1000C000E1F70E9429010C945D010C940000CF938C
:1000D000DF9300D01F92CDB7DEB789837B836A831D
:1000E00089818A3031F48A819B81BC018DE00E9434
:1000F000670080EC90E0FC018081882F90E08072A6
:100100009927892BB1F386EC90E02981FC012083AB
:1001100080E090E00F900F900F90DF91CF910895C5
:10012000CF93DF93CDB7DEB780911001909111018D
:100130008130910581F08130910520F0029709F41A
:1001400065C083C01092120181E090E0909311018C
:10015000809310017AC080910E01882339F481E0E8
:1001600090E090931101809310016CC080910E017A
:10017000882309F467C080910F01863080F4809154
:100180000F01282F30E08EE390E002C0880F991F06
:100190002A95E2F780958F73809312012BC080918E
:1001A0000F01863020F080910F018B3040F080915C
:1001B0000F01823150F080910F01863130F480912F
:1001C000120180958093120115C080910F018B3030
:1001D00088F080910F01882F90E09C012B5031090D
:1001E0008FE390E002C0959587952A95E2F78F738B
:1001F0008093120182E090E09093110180931001AE
:1002000080910F018F5F80930F011CC080910E01C0
:10021000882339F082E090E09093110180931001DF
:100220000AC080910E01882331F481E090E0909320
:1002300011018093100180910F01863129F41092F1
:100240000F0102C0000001C000000000DF91CF914B
:100250000895CF93DF93CDB7DEB781E290E0FC0144
:10026000108282E290E02FEFFC01208384E290E094
:100270002FEFFC01208385E290E0FC0110821092B8
:1002800011011092100110920F0180E290E0FC0128
:100290008081882F90E08170992721E0892B09F0D7
:1002A00020E0822F80930E010E94900085E290E072
:0E02B00020911201FC012083E8CFF894FFCFCB
:0E02BE000000000200000000670000000000C9
:00000001FF
