:100000000C9446000C9465000C9465000C946500FB
:100010000C9465000C9465000C9465000C946500CC
:100020000C9465000C9465000C9465000C946500BC
:100030000C9465000C9465000C9465000C946500AC
:100040000C9465000C9465000C9465000C9465009C
:100050000C9465000C9465000C9465000C9465008C
:100060000C9465000C9465000C9465000C9465007C
:100070000C9465000C9465000C9465000C9465006C
:100080000C9465000C9465000C94650011241FBE4F
:10009000CFEFD0E4DEBFCDBF11E0A0E0B1E0E2EEF3
:1000A000F3E000E00BBF02C007900D92AE30B10745
:1000B000D9F721E0AEE0B1E001C01D92A331B20753
:1000C000E1F70E94B0010C94EF010C940000CF9373
:1000D000DF9300D01F92CDB7DEB789837B836A831D
:1000E00089818A3031F48A819B81BC018DE00E9434
:1000F000670080EC90E0FC018081882F90E08072A6
:100100009927892BB1F386EC90E02981FC012083AB
:1001100080E090E00F900F900F90DF91CF910895C5
:10012000CF93DF93CDB7DEB780910F01909110018F
:100130008230910509F473C08330910528F400974B
:1001400059F0019799F008C18330910509F4A5C0D1
:10015000049709F4DFC000C187E08093110181E0BA
:1001600090E09093100180930F01F6C080910E01F2
:10017000282F30E09091120181E0992309F080E06E
:10018000882F90E082239323892B89F082E090E0EE
:100190009093100180930F0180911101893008F034
:1001A000D6C0809111018F5F80931101D0C09091D2
:1001B0000E01809112018923882349F084E090E0A8
:1001C0009093100180930F0110921101C0C0909183
:1001D0000E0181E0992309F080E0282F30E0809122
:1001E0001201882F90E082239323892B89F083E0EA
:1001F00090E09093100180930F018091110188236A
:1002000009F4A5C0809111018150809311019FC014
:1002100081E090E09093100180930F0198C080914D
:100220000E01282F30E09091120181E0992309F00E
:1002300080E0882F90E082239323892B39F082E09D
:1002400090E09093100180930F0183C080910E0184
:1002500091E0882309F090E02091120181E02223AF
:1002600009F080E08923882339F081E090E09093C1
:10027000100180930F016DC090910E0180911201C9
:100280008923882309F465C084E090E090931001ED
:1002900080930F01109211015CC080911201282FF0
:1002A00030E090910E0181E0992309F080E0882FE1
:1002B00090E082239323892B39F083E090E09093A0
:1002C000100180930F0147C080910E0191E08823B7
:1002D00009F090E02091120181E0222309F080E0F2
:1002E0008923882339F081E090E090931001809376
:1002F0000F0131C090910E01809112018923882352
:1003000051F184E090E09093100180930F011092DE
:10031000110121C08091120191E0882309F090E041
:1003200020910E0181E0222309F080E089238823B7
:1003300039F081E090E09093100180930F010CC0A0
:1003400084E090E09093100180930F0105C00000BD
:1003500003C0000001C000000000DF91CF910895AC
:10036000CF93DF93CDB7DEB781E290E0FC0110823E
:1003700082E290E02FEFFC01208387E290E02FEFF4
:10038000FC01208388E290E0FC01108210921001B1
:1003900010920F0180E290E0FC018081882F90E0B4
:1003A0008170992721E0892B09F020E0822F80932A
:1003B0000E0180E290E0FC018081882F90E0809522
:1003C0009095959587958170809312010E94900079
:1003D00088E290E020911101FC012083DBCFF894AA
:0203E000FFCF4D
:0E03E2000000000200000000670000000000A4
:00000001FF
